:020000040800F2
:100000008804002045010008CB19000841180008A9
:10001000C919000885060008751C000800000000CA
:10002000000000000000000000000000EF190008C0
:100030008706000800000000ED190008F11900080B
:100040005F0100085F0100085F0100085F01000810
:100050005F0100085F0100085F0100085F01000800
:100060005F0100085F0100085F0100085F010008F0
:100070005F0100085F0100085F0100085F010008E0
:100080005F0100085F0100085F0100085F010008D0
:100090005F0100085F0100085F0100085F010008C0
:1000A0005F0100085F0100085F0100085F010008B0
:1000B0005F0100085F0100085F0100085F010008A0
:1000C0005F0100085F0100085F0100085F01000890
:1000D0005F0100085F0100085F0100085F01000880
:1000E0005F0100085F0100085F0100085F01000870
:1000F0005F0100085F0100085F0100085F01000860
:100100005F0100085F0100085F0100085F0100084F
:100110005F0100085F0100085F0100085F0100083F
:100120005F0100085F0100085F0100085F0100082F
:10013000DFF80CD000F026FA00480047351D000813
:10014000880400200648804706480047FEE7FEE78F
:10015000FEE7FEE7FEE7FEE7FEE7FEE7FEE7FEE777
:10016000591A000831010008202A04DB203A21FA3C
:1001700002F00021704721FA02F3D040C2F12002C0
:100180009140084319467047D2B201E000F8012BB4
:10019000491EFBD270470022F6E710B513460A4607
:1001A00004461946FFF7F0FF204610BDF0B480EA80
:1001B0000102D40F4200B2EB410F02D202460846C0
:1001C00011464A0042D0C30DDDB2C1F3C752AD1A89
:1001D000202D35DAC1F3160141F4000204B1524278
:1001E000C5F1200602FA06F12A411044B3EBD05FB4
:1001F00023D0C4B1012DA0EBC35009DCF0BC4FF0FB
:10020000004202EAC352DBB200F5000000F02EB952
:10021000400000F1807000EBC350A0F1807040EA14
:10022000D170490009E0490841EAC071A0EBC35010
:1002300000F50000400800EBC350F0BC00F00DB921
:100240006142012202EB4101001BF6E7F0BC70475E
:1002500081F00041AAE780F00040A7E780EA0102B0
:1002600010B502F00043400022D04A001FD0010E1A
:1002700001EB1261C0F35600C2F3560240F40000D5
:1002800042F40002A0FB022000047F39140400D0D5
:10029000401C50EA124001D44000491EC2B20C0674
:1002A00004EBD010401C4008802A02D003E000205C
:1002B00010BD20F00100002900DA0020184310BD15
:1002C0002DE9FE4F81EA030404F0004421F00041CF
:1002D00000944FF0000B23F0004350EA01045ED07D
:1002E00052EA03045BD0C3F30A54C1F30A552C4409
:1002F000A4F2F3340194A0FB0254C1F3130141F4BE
:100300008011C3F3130343F4801301FB024400FB89
:10031000034E840A970A44EA815447EA8357A4FBB0
:10032000076802958D0A05FB07854FEA932C04FBAD
:100330000C542705029D4FEA065847EA1637B5EBDD
:1003400008056EEB070C870E920E47EA811742EA0A
:100350008312A7FB0201B6EB0B0164EB00042B0D2B
:1003600043EA0C335E1844EB1C50DA465146E7FB77
:100370000201C5F313044FEA0B3343EA14534FEA67
:100380000432019C43EA0603A4F10C040294009C8D
:10039000CDE900B400F0A7F803B0BDE8F08F00206D
:1003A0000146F9E796230022114600F05FB80EB52A
:1003B00040F2334102910021CDE900110A460B467B
:1003C00000F091F803B000BD00F0004220F00040C2
:1003D000C10DC0F3160040F400007F2901DA0020AF
:1003E0007047962903DCC1F19601C84001E09639B7
:1003F0008840002AF4D04042704720F00040C10DF0
:10040000C0F3160040F400007F2901DA0020704795
:10041000962903DCC1F19601C8407047963988409F
:10042000704701F0004330B421F0004150EA01026E
:1004300006D00A0DA2F56072C1F31301002A02DC96
:1004400030BC00207047440F44EAC104C100E018EA
:1004500030BC00EBC250AFF300800029A8BF70474A
:10046000401C490008BF20F00100704710B4B0FAEA
:1004700080FC00FA0CF050EA010404BF10BC704785
:1004800049B1CCF1200421FA04F411FA0CF118BF9F
:10049000012121430843A3EB0C01CB1D4FEA00616E
:1004A0004FEA102042BF002010BC704700EBC35041
:1004B00010440029A4BF10BC7047401C490008BF6D
:1004C00020F0010010BC704710B5141E73F1000439
:1004D00008DA401C41F1000192185B411A4301D136
:1004E00020F0010010BD2DE9F04D92469B4611B160
:1004F000B1FA81F202E0B0FA80F22032904600F0C8
:1005000053F804460F4640EA0A0041EA0B015346FD
:100510005A46084313D0114653EA010019D0C8F1D6
:1005200040025046FFF720FE05460E46504659460B
:10053000424600F039F8084305D0012004E0204687
:100540003946BDE8F08D0020054346EAE0762C43AD
:1005500037430A986305E40AA0EB08000022FD0A6D
:1005600044EA47540A3002D500200146E9E7010574
:1005700010196941DDE9084500196941BDE8F04DF0
:10058000A2E70000064C074D06E0E06840F00103DA
:1005900094E8070098471034AC42F6D3FFF7CCFD3F
:1005A000AC1E0008CC1E0008202A04DB203A00FA0A
:1005B00002F1002070479140C2F1200320FA03F3BA
:1005C000194390407047000070B504460068816888
:1005D000C943C9071CD1816821F00101816000F085
:1005E000ADFB05460FE000BF00F0A8FB401B022852
:1005F00009D9A06A40F01000A062E06A40F0010052
:10060000E062012070BD20688068C043C007EBD065
:10061000002070BDF8B50026044600960068816889
:10062000C943C90728D0816841F00101816013489E
:1006300013490068B0FBF1F000E0401E0090002874
:10064000FBD100F07BFB054611E000BF00F076FB1C
:10065000401B02280BD9A06A40F01000A062E06A9B
:1006600040F00100E06284F824600120F8BD2068B9
:100670008068C043C007E9D10020F8BD1000002009
:1006800040420F00FEE770477047000010B5064873
:1006900000F0F6F90A21044800F05AF9024800F087
:1006A00097F880B210BD00001400002070B500253E
:1006B00006462C4608E000BFFFF7E8FF05440A2085
:1006C00001F004FB641CE4B2B442F5D3B5FBF6F0D0
:1006D00080B270BDF8B50024009490F8242025461F
:1006E000012A12D0012280F824204A681F23072AF9
:1006F0000DD20668776B521E02EB820293409F4335
:100700000B6893401F43776319E00220F8BD066829
:100710000D2A0AD2376BD21F02EB820293409F430D
:100720000B6893401F43376309E0F76A0D3A02EB09
:10073000820293409F430B6893401F43F7620A680D
:10074000072306680A2A0AD3F7680A3A02EB42022C
:1007500093409F438B6893401F43F76008E03769DD
:1007600002EB420293409F438B6893401F433761E3
:100770000A68102A01D0112A20D1124B02689A422D
:1007800017D193681B0219D4936843F40003936054
:100790000968102912D10C490C4A0968B1FBF2F121
:1007A00001EB8101490000E0491E00910029FBD1C5
:1007B00004E0816A41F020018162012480F8245024
:1007C0002046F8BD002401401000002040420F00E8
:1007D0000068C06C704700002DE9F04104004FF044
:1007E00000057FD0A06A002628B9E66284F824605C
:1007F000204600F081F82046FFF7E6FEA16AC90610
:1008000000D420B1A06A40F01000A0626AE0A16AA2
:1008100021F4885141F00201A162334923688B42DF
:10082000E16904D1B1F5402F01D14FF40021E7680F
:100830004FF4807C41EA470261680A43A168614540
:1008400008D0012906D00021D4F814E0BEF1010F30
:1008500002D00AE06146F7E7C7B1A76A47F0200770
:10086000A762E76A47F00107E7625F6827F4694714
:100870000F435F60236899681C4F394011439960AA
:10088000A16861450BD0012909D00CE0DFF860E0D8
:10089000A7690EEB47370F4347F40061E5E7218A6C
:1008A0000D05A5F580152168CB6A23F470032B4351
:1008B000CB62216889680F4B1940914208D1E662EA
:1008C000A16A21F0020141F00101A162BDE8F081BD
:1008D000A06A20F0020040F01000A062E06A40F040
:1008E0000100E0620120F1E7003C0140FDF7E1FF7B
:1008F00000E0FFFFFE0E1FFF00B585B00021009154
:1009000001910291039100680E49884218D10E4866
:10091000816941F400718161816901F40071049180
:10092000816941F0040181618069694600F0040039
:1009300004900220009003200190044800F000F988
:1009400005B000BD00240140001002400008014035
:100950002DE9F84300260D460446009600F0EEF916
:10096000804620688168C90508D5A06A40F020004B
:10097000A06284F824600120BDE8F8834168C905BD
:1009800003D4C06A10F4700F26D0022000F066FA7B
:1009900038490968B1FBF0F72068036936490B4212
:1009A0004FEA61014FEAA1121BD1C3684FEA611CF3
:1009B00013EA0C0F15D103690B4221D1C068104214
:1009C0001ED114201FE0681C06D045B300F0B6F914
:1009D000A0EB0800A84222D8206800688007F2D562
:1009E0002AE003690B4202D1C168114206D00269B4
:1009F00022490A4206D1C068084203D1542002E0CD
:100A0000292000E0FC204743009813E0681C0ED02A
:100A10002DB100F093F9A0EB0800A84207D9A06A15
:100A200040F00400A06284F824600320A4E700984A
:100A3000401C0090B842E9D321686FF012000860B2
:100A4000A06A40F40070A06220688068C0F3424051
:100A500007280CD1E06850B9A06A20F48070A06229
:100A6000A06AC00403D4A06A40F00100A062002084
:100A700082E70000100000202449922449922400BB
:100A800070B5044690F8240001280DD0012084F8A8
:100A900024002046FFF7BEFD02004FF0000005D005
:100AA00084F82400104670BD022070BDA16A40F297
:100AB0000123994341F48071A1621F4D23681F49AE
:100AC000AB4218D10E6816F4702F14D0A66A46F403
:100AD0008016A6620E68760505D5A66A26F400562D
:100AE00046F48056A662A66AF6040AD5E66A26F09F
:100AF0000606E66206E0A66A26F48016A6625E682E
:100B0000E9E7E06284F824006FF0020018602068D2
:100B10008368C3F34243072B05D1A84208D1096873
:100B200011F4702F04D0816841F480118160B9E71D
:100B3000816841F4A001F9E7002801400424014044
:100B40002DE9F84FDFF8B8A100220AF1040B144692
:100B500001274FF00F090BF1040E00BF0B6807FAD5
:100B600004F52B40AB4274D1DFF898C14E68A6EB78
:100B70000C0866452BD00DDC032E34D005DC36B3D3
:100B8000012E19D0022E2FD11BE0112E16D0122EBD
:100B90002AD119E0B8F5881F19D006DCB8F5803FD6
:100BA00015D0B8F5801F1FD111E0B8F5001F0ED089
:100BB000B8F5041F18D10AE0CA6815E0CA68121D0A
:100BC00012E0CA6808320FE0CA680C320CE08A688A
:100BD0002AB1012A4FF0080203D0456104E0042243
:100BE00002E0056100E00022FF2B01D8064601E08B
:100BF00000F104064FEA840501D9A5F12005D6F8D5
:100C000000C009FA05F82CEA080C02FA05F54CEACE
:100C1000050CC6F800C04D68ED006AD53A4DAE69C6
:100C200046F00106AE61AD6924F0030605F001054A
:100C30000095364D06EB050CDCF80850A6074FEA88
:100C4000167809FA08F6B543314EB04202D10026B3
:100C50001AE04EE02F4EB04201D1012614E02E4E94
:100C6000B04201D102260FE02C4EB04201D1032642
:100C70000AE02B4EB04201D1042605E0294EB042D5
:100C800001D1052600E0062606FA08F62E43CCF828
:100C900008604D68DAF80060ED03554601D51E4343
:100CA00000E09E432E604D68AD0305D5DBF8006083
:100CB0001E43CBF8006004E0DBF800509D43CBF806
:100CC00000504D68DEF80060ED02754601D51E4308
:100CD00000E09E432E604D68AD0205D5084D0C35F1
:100CE0002E681E432E6004E0054E0C3635689D4389
:100CF0003560641C102CFFF431AFBDE8F88F0000A4
:100D000000040140000011100010024000000140EA
:100D100000080140000C0140001001400014014097
:100D200000180140001C0140C2684A40C260704780
:100D30000AB1016170470904FBE7000001488068BF
:100D400070470000040000200248816802781144C6
:100D50008160704704000020074810B5016841F029
:100D600010010160032000F067F8002000F006F891
:100D700000F024F8002010BD0020024070B50D4D99
:100D800004464FF47A712878B1FBF0F00A490968FB
:100D9000B1FBF0F000F0DCFB48B9102C07D20022C8
:100DA0002146501E00F028F800206C6070BD012024
:100DB00070BD000004000020100000200C4808B5A1
:100DC000816941F001018161816901F001010091B6
:100DD000C16941F08051C161C06900F0805000904C
:100DE0000448416821F0E06141F00071416008BDB4
:100DF0000010024000000140F0B40E4B1B680C468E
:100E0000C3F30223C3F10705042D00D90425191DDE
:100E1000072901D2002300E0DB1E012606FA05F1B6
:100E2000491E214099409E40761E16403143F0BC39
:100E300000F0CCBD0CED00E0064900F007020868A8
:100E40004FF6FF03184040EA0220034A10430860AF
:100E5000704700000CED00E00000FA0510B52CA46E
:100E600001461DCC86B08DE81D002DA02D4C0068DC
:100E70000490002004292FD00BDC01292FD0022957
:100E800028D100F091F96168C1F38131491C490012
:100E90001EE0082920D010291CD161682268D201E7
:100EA00018D5C1F38342C9031DF8020009D5616852
:100EB00004AAC1F34041515C1B4AB2FBF1F1484323
:100EC00001E01A4948436168490203D44000032104
:100ED000B0FBF1F006B010BD00F076F9FAE7226A37
:100EE000C2F30121012903D1920701D5C803F1E71B
:100EF000022905D1626A920702D549F64040E9E726
:100F00000329E7D121688903E4D54FF22440E1E7C2
:100F100002030405060708090A0B0C0D0E0F10103A
:100F2000010200000010024000127A0000093D009A
:100F30002DE9F84305460078354CC00754D0E069E8
:100F40000026C00008D4E06940F08050E061E0690C
:100F5000012600F0805000902E480168C90512D487
:100F60000168804641F480710160FFF7E7FE0746A3
:100F700005E000BFFFF7E2FEC01B642823D8D8F8C5
:100F80000000C005F6D5206A10F4407021D0A98871
:100F900001F4407181421CD0206A1F49012220F4D3
:100FA00040700A6000220A602062C00711D0FFF77B
:100FB000C5FE074641F2883808E000BFFFF7BEFED5
:100FC000C11B414502D90320BDE8F883206A800790
:100FD000F4D5206A696820F44070084320621EB18D
:100FE000E06920F08050E0612878800705D56068CE
:100FF000A96820F44040084360602878C00605D501
:101000006068696920F48000084360600020DBE7C5
:101010000010024000700040400442422DE9F047B9
:10102000DFF8548105460E46D8F8000000F00700AE
:10103000B0420CD2D8F8001021F007013143C8F8B3
:101040000010D8F8000000F00700B0426FD1286807
:101050004A4C810712D5400703D5606840F4E06030
:1010600060602878000703D5606840F460506060D5
:101070006068A96820F0F000084360602878C00725
:1010800044D06868012816D02168022816D0890744
:1010900000294CDA616821F0030101436160FFF728
:1010A0004DFE6968074641F2883001290ED00229B9
:1010B000814618D026E021688903E9E78901E7E73E
:1010C000FFF73CFEC11B494501D918E08146606825
:1010D000C0F381000128F3D118E000BFFFF72EFE16
:1010E000C11B49450BD86068C0F381000228F5D1C7
:1010F0000CE000BFFFF722FEC11B494502D90320C7
:10110000BDE8F087606810F00C0FF3D1D8F800103C
:10111000404601F00701B1420BD9016821F00701F7
:1011200031430160006800F00700B04201D00120A7
:10113000E6E72878400705D56068E96820F4E060B4
:10114000084360602878000706D56068296920F4A4
:10115000605040EAC100606000F036F86168084AFB
:10116000C1F30311515CC840064908600020FFF735
:1011700005FE0020C4E700000020024000100240ED
:10118000941E0008100000200448054900684968C2
:10119000044AC1F30221515CC8407047100000208E
:1011A00000100240A41E0008044805490068496870
:1011B000044AC1F3C221515CC840704710000020AE
:1011C00000100240A41E000812A185B00FC98DE8CE
:1011D0000F0014A0144A006804905168134801F0ED
:1011E0000C03042B10D0082B0ED1C1F38343C90389
:1011F0001DF803000AD5516804AAC1F34041515CAF
:101200000A4A5043B0FBF1F005B070470849484323
:10121000FAE7000002030405060708090A0B0C0D93
:101220000E0F1010010200000010024000127A00A0
:1012300000093D002DE9F84F04460078B94DC0077C
:1012400048D06868C0F38100012807D06868C0F3FF
:101250008100022809D16868C00306D52868800388
:1012600038D5606800286FD034E06068B0F5803F02
:101270000BD010B1B0F5A02F11D0286820F4803029
:101280002860286820F4802002E0286840F480303C
:101290002860606888B1FFF751FD064609E02868BC
:1012A00040F480202860F0E7FFF748FD801B6428A9
:1012B00075D828688003F7D50CE0FFF73FFD064698
:1012C00005E000BFFFF73AFD801B6428F0D82868CE
:1012D0008003F7D42078944E80074FF001094FF037
:1012E00000083BD5686810F00C0F07D06868C0F3A1
:1012F0008100022809D16868C00306D428688007E5
:1013000014D5206901281FD110E02069B0B1C6F8BA
:101310000090FFF713FD074605E000BFFFF70EFD45
:10132000C01B0228C4D828688007F7D528686169DF
:1013300020F0F80040EAC10028600FE0C6F8008005
:10134000FFF7FCFC074606E0E9E000BFFFF7F6FC0C
:10135000C01B022823D828688007F7D4207800070C
:101360002CD57248A169D9B1C0F80090FFF7E6FC0E
:10137000074604E0FFF7E2FCC01B02280FD8686AAA
:101380008007F7D56A484FF4FA510068B0FBF1F0D6
:10139000009000BF0098411E0091FAD20EE080E05C
:1013A000C0F80080FFF7CAFC074604E0FFF7C6FC60
:1013B000C01B022875D8686A8007F7D420784007D8
:1013C00060D5E8690027C00008D4E86940F0805083
:1013D000E861E869012700F08050009055480168F5
:1013E000C90513D40168834641F480710160FFF799
:1013F000A5FC824606E000BFFFF7A0FCA0EB0A00B8
:1014000064284ED8DBF80000C005F5D5E068012857
:101410000AD008B1052813D0286A20F001002862FC
:10142000286A20F0040002E0286A40F001002862E7
:10143000E06841F2883B98B1FFF780FC82460BE000
:10144000286A40F004002862EEE700BFFFF776FC50
:10145000A0EB0A0159455AD8286A8007F6D50CE056
:10146000FFF76CFC824605E0FFF768FCA0EB0A0181
:1014700059454CD8286A8007F6D41FB1E86920F096
:101480008050E861E06988B36968C1F3810102298D
:1014900045D00228C6F8608004D0FFF74FFC044610
:1014A00038E034E0FFF74AFC074604E0FFF746FC6B
:1014B000C01B02282BD828688001F7D4206AB0F519
:1014C000803F05D16868A16820F400300843686057
:1014D000D4E908010843696821F47411084368607D
:1014E000C6F86090FFF72AFC044606E015E000BF4E
:1014F000FFF724FC001B022809D828688001F7D5D3
:101500000BE000BFFFF71AFC001B022802D90320E2
:10151000BDE8F88F28688001F4D40020F8E70120A6
:10152000F6E7000000100240000042428004424200
:1015300010000020007000404FF0E02104280869EE
:1015400003D020F004000861704740F00400FAE77F
:1015500010B5401EB0F1807F01D3012010BD4FF0C7
:10156000E02460610F21601700F030FA0020A061D4
:1015700007202061002010BD70B5040004D094F84D
:101580003900002510B106E0012070BD84F8385004
:10159000204600F023F8242084F839002068C16830
:1015A00021F40051C160204600F07AFA20680169F8
:1015B00021F4904101612068416921F02A014161D3
:1015C0002068C16841F40051C160E563202084F8BF
:1015D000390084F83A00002070BD000030B585B0B5
:1015E00000240094019402940394006814498842F2
:1015F00024D11448816941F480418161816901F4F9
:1016000080410491816941F00401816180690E4D3E
:1016100000F0040004904FF400700090022001904C
:101620000320039069462846FFF78AFA2815CDE97A
:101630000004694628460294FFF782FA05B030BDDF
:101640000038014000100240000801402DE9F84335
:10165000044690F839001F4616460D46202850D102
:10166000A5B19EB194F8380001284AD0012084F831
:1016700038004FF00008C4F83C80212084F839007D
:10168000FFF75CFBA6848146E68426E00120BDE8E6
:10169000F883E08C401EE084A0684B46B0F5805F84
:1016A0004FF000024FF080012046009703D000F079
:1016B000AFFAE8B90DE000F0ABFAC8B928882168A4
:1016C000C0F308004860206908B16D1C05E0AD1C3E
:1016D00003E0216815F8010B4860E08C0028D8D1A0
:1016E0004B46002240212046009700F091FA08B1B5
:1016F0000320CCE7202084F8390084F838800020CB
:10170000C5E70220C3E77FB50446FF201D468DF8DC
:101710000000089E4FF47A732046FFF797FF206879
:101720000168C9434906FBD401A9284600F08AF89C
:1017300042F21073324601A92046FFF787FF206866
:101740000168C9434906FBD4142301226946204697
:10175000FFF77CFF20680168C9434906FBD41423C6
:10176000012269462046FFF771FF20680168C943DE
:101770004906FBD41423012269462046FFF766FF81
:1017800020680168C9434906FBD47FBD2DE9FC41AF
:101790000446FF208DF8000022201E468DF804002C
:1017A0004FF47A75089F2B462046FFF74FFF2068BD
:1017B0000168C9434906FBD42B46012201A92046F2
:1017C000FFF744FF20680168C9434906FBD42B4654
:1017D0003A4631462046FFF739FF20680168C94381
:1017E0004906FBD42B46012201A92046FFF72EFF14
:1017F00020680168C9434906FBD42B46012269468B
:101800002046FFF723FF20680168C9434906FBD43F
:101810002B46012269462046FFF718FF2068016821
:10182000C9434906FBD42B46012269462046FFF7EF
:101830000DFF20680168C9434906FBD4BDE8FC815F
:10184000FEE7000070B502004FF0000003D52D2028
:101850005242087001200A2392FBF3F403FB142484
:1018600092FBF3F230340C54401C002AF4D10A5499
:101870000B782D2B01D10122401C00EBD07500BF4D
:10188000B2EB650F0EDA831A0B448C5C13F8016D12
:1018900034448C541E78A41B1C708B5C1B1B8B5413
:1018A000521CEDE7084670BD3EB50021114800917D
:1018B0000191029181600E4AC16002604161012480
:1018C0004FF460220461C2614160FEF785FF08B1F8
:1018D000FEF7DAFE07200094CDE90140694605488D
:1018E000FEF7F8FE002801D0FEF7CEFE3EBD000058
:1018F00000240140140000202DE9F04186B00024AE
:1019000020480094019402940394816941F02001DD
:101910008161816901F020010491816941F0040134
:101920008161816901F004010491816941F008013C
:1019300081618069012200F00800134F15020490B4
:1019400029463846FFF7F4F9DFF8408001220421E8
:101950004046FFF7EDF90095032601250396CDE9F2
:10196000015469463846FFF7EBF80420CDE900053D
:10197000CDE9024669464046FFF7E2F806B0BDE809
:10198000F0810000001002400008014000140140F6
:101990000C4810B50A4901604FF4E1314160002163
:1019A00081600C22C160C0E904128161C161FFF74E
:1019B000E3FD002803D0BDE81040FEF765BE10BD72
:1019C0000038014044000020FEE770470907090E77
:1019D000002806DA00F00F0000F1E02080F8141D66
:1019E000704700F1E02080F800147047704770479E
:1019F000FFF7AAB930B595B028216846FEF7CBFBB2
:101A000014210AA8FEF7C7FB18210FA8FEF7C3FB95
:101A100001210804CDE9001000240294022504915C
:101A2000CDE907504FF4E01009906846FFF702FC3B
:101A30000F20CDE90A056802CDE90C4002210AA871
:101A40000E94FFF7EBFAA80311900F950FA8FFF77C
:101A50006FFA15B030BD00000D48016841F001017A
:101A6000016041680B4A1140416001680A4A114017
:101A70000160016821F480210160416821F4FE01C8
:101A800041604FF41F0181600449C0030860704742
:101A9000001002400000FFF8FFFFF6FE08ED00E036
:101AA0002DE9F041044600680169E26821F44051E3
:101AB000114301612169A0680843616908432168F5
:101AC000CA6841F20C639A430243CA6020684169C4
:101AD000A26921F44071114341614C492068642599
:101AE000322688423CD1FFF75FFB00EBC00101EBDF
:101AF000001061688900B0FBF1F7FFF755FB00EBC0
:101B0000C00101EB00106168B0468900B0FBF1F044
:101B1000B0FBF5F06FF01801484307EB800106EBCE
:101B20000110B0FBF5F000F0F006FFF73DFB00EB15
:101B3000C00101EB001061688900B0FBF1F0B0FB5F
:101B4000F5F006EB0016FFF72FFB00EBC00101EBF1
:101B5000001061688900B0FBF1F7FFF725FB3BE05F
:101B6000FFF712FB00EBC00101EB00106168890078
:101B7000B0FBF1F7FFF708FB00EBC00101EB001031
:101B80006168B0468900B0FBF1F0B0FBF5F06FF092
:101B90001801484307EB800106EB0110B0FBF5F09C
:101BA00000F0F006FFF7F0FA00EBC00101EB0010C7
:101BB00061688900B0FBF1F0B0FBF5F006EB0016B0
:101BC000FFF7E2FA00EBC00101EB00106168890049
:101BD000B0FBF1F7FFF7D8FA00EBC00101EB001002
:101BE00061688900B0FBF1F0B0FBF5F06FF018010F
:101BF000484307EB800108EB0110B0FBF5F02168CA
:101C000000F00F0030448860BDE8F08100380140EA
:101C10002DE9F041984617460E460446069D1DE004
:101C2000681C1BD02DB1FFF789F8A0EB0800A84273
:101C300014D92068C16821F4D071C160206841695D
:101C400021F001014161202084F8390084F83A0034
:101C5000002084F838000320BDE8F0812068006887
:101C600036EA000004D00020B842D9D00020F3E7C3
:101C70000120F9E7FEE702E008C8121F08C1002AA8
:101C8000FAD170477047002001E001C1121F002AFD
:101C9000FBD1704710B50020FFF74EFC08480949FA
:101CA0000068B0FBF1F0084900EB40020880C2EB8D
:101CB000C0104FF6FF7202EAC000488010BD00005D
:101CC0001000002000127A00000000200B49498813
:101CD00048434FF0E021486100228A61086940F0E2
:101CE000010008610869C30701D0C003FAD508697B
:101CF00020F0010008618A617047000000000020A8
:101D00000B49098848434FF0E021486100228A616D
:101D1000086940F0010008610869C30701D0C003E9
:101D2000FAD5086920F0010008618A617047000057
:101D30000000002008B5FFF70FF8FFF75BFEFFF784
:101D4000DBFDFFF725FEFFF7AFFDFFF7A3FF002246
:101D50004FF480713848FEF7EBFF4FF0040901247F
:101D60004FF0640A4FF00A084FF0100B1420FEF7F2
:101D70009DFC0746FEF71BFB4FF066322F4BFEF72C
:101D80009FFAFEF74EFB0646FEF737FB85B2284664
:101D9000FEF708FB3146FEF75EFA2949FEF75EFAC8
:101DA00006463B46072227A12848CDF80090FFF7BA
:101DB000AAFC2B46072226A124480094FFF7A3FC87
:101DC0003046FEF701FB064690FBFAF083B207228D
:101DD00021A11E480094FFF796FC454696FBF5F0BE
:101DE00090FBF5F108FB110083B207221CA11748F4
:101DF0000094FFF788FC96FBF5F105FB116083B2B8
:101E0000072219A111480094FFF77DFC18A30722AF
:101E10001CA10E48CDF800B0FFF7B8FC4FF480715C
:101E20000548FEF781FF04211848FEF77DFF18489A
:101E3000FFF766FF9AE700000008014066664A3F28
:101E400000007A446E302E76616C3D004400002024
:101E50006E312E76616C3D006E322E76616C3D00E7
:101E60006E332E76616C3D006E342E76616C3D00D3
:101E7000B4CBB4A6D3C3D2D4CEC4B1BEB2E2CAD41A
:101E80000000000074322E7478743D00001401408C
:101E900020A1070000000000000000000102030470
:101EA000060708090000000001020304CC1E000818
:101EB0000000002014000000761C0008E01E00084E
:101EC0001400002074040000861C000800000000BC
:101ED00001000000100000000000000000A24A0401
:0400000508000131BD
:00000001FF
